{
  "_format": "hh-sol-artifact-1",
  "contractName": "mainnetSendV2",
  "sourceName": "contracts/token/onft721/mainnetSendV2.sol",
  "abi": [
    {
      "inputs": [
        {
          "internalType": "string",
          "name": "_name",
          "type": "string"
        },
        {
          "internalType": "string",
          "name": "_symbol",
          "type": "string"
        },
        {
          "internalType": "uint256",
          "name": "_minGasToTransfer",
          "type": "uint256"
        },
        {
          "internalType": "address",
          "name": "_lzEndpoint",
          "type": "address"
        },
        {
          "internalType": "uint256",
          "name": "_chainId",
          "type": "uint256"
        }
      ],
      "stateMutability": "nonpayable",
      "type": "constructor"
    },
    {
      "anonymous": false,
      "inputs": [
        {
          "indexed": true,
          "internalType": "address",
          "name": "owner",
          "type": "address"
        },
        {
          "indexed": true,
          "internalType": "address",
          "name": "approved",
          "type": "address"
        },
        {
          "indexed": true,
          "internalType": "uint256",
          "name": "tokenId",
          "type": "uint256"
        }
      ],
      "name": "Approval",
      "type": "event"
    },
    {
      "anonymous": false,
      "inputs": [
        {
          "indexed": true,
          "internalType": "address",
          "name": "owner",
          "type": "address"
        },
        {
          "indexed": true,
          "internalType": "address",
          "name": "operator",
          "type": "address"
        },
        {
          "indexed": false,
          "internalType": "bool",
          "name": "approved",
          "type": "bool"
        }
      ],
      "name": "ApprovalForAll",
      "type": "event"
    },
    {
      "anonymous": false,
      "inputs": [
        {
          "indexed": false,
          "internalType": "uint256",
          "name": "_fromTokenId",
          "type": "uint256"
        },
        {
          "indexed": false,
          "internalType": "uint256",
          "name": "_toTokenId",
          "type": "uint256"
        }
      ],
      "name": "BatchMetadataUpdate",
      "type": "event"
    },
    {
      "anonymous": false,
      "inputs": [
        {
          "indexed": false,
          "internalType": "bytes32",
          "name": "_hashedPayload",
          "type": "bytes32"
        }
      ],
      "name": "CreditCleared",
      "type": "event"
    },
    {
      "anonymous": false,
      "inputs": [
        {
          "indexed": false,
          "internalType": "bytes32",
          "name": "_hashedPayload",
          "type": "bytes32"
        },
        {
          "indexed": false,
          "internalType": "bytes",
          "name": "_payload",
          "type": "bytes"
        }
      ],
      "name": "CreditStored",
      "type": "event"
    },
    {
      "anonymous": false,
      "inputs": [
        {
          "indexed": true,
          "internalType": "bytes",
          "name": "payload",
          "type": "bytes"
        }
      ],
      "name": "LzReceive",
      "type": "event"
    },
    {
      "anonymous": false,
      "inputs": [
        {
          "indexed": true,
          "internalType": "uint256",
          "name": "tokenId",
          "type": "uint256"
        },
        {
          "indexed": false,
          "internalType": "address",
          "name": "seller",
          "type": "address"
        },
        {
          "indexed": false,
          "internalType": "address",
          "name": "owner",
          "type": "address"
        },
        {
          "indexed": false,
          "internalType": "uint256",
          "name": "price",
          "type": "uint256"
        },
        {
          "indexed": false,
          "internalType": "bool",
          "name": "sold",
          "type": "bool"
        }
      ],
      "name": "MarketItemCreated",
      "type": "event"
    },
    {
      "anonymous": false,
      "inputs": [
        {
          "indexed": true,
          "internalType": "uint256",
          "name": "tokenId",
          "type": "uint256"
        },
        {
          "indexed": true,
          "internalType": "address",
          "name": "seller",
          "type": "address"
        },
        {
          "indexed": true,
          "internalType": "address",
          "name": "buyer",
          "type": "address"
        },
        {
          "indexed": false,
          "internalType": "uint256",
          "name": "price",
          "type": "uint256"
        },
        {
          "indexed": false,
          "internalType": "uint256",
          "name": "saleValue",
          "type": "uint256"
        }
      ],
      "name": "MarketSale",
      "type": "event"
    },
    {
      "anonymous": false,
      "inputs": [
        {
          "indexed": false,
          "internalType": "uint16",
          "name": "_srcChainId",
          "type": "uint16"
        },
        {
          "indexed": false,
          "internalType": "bytes",
          "name": "_srcAddress",
          "type": "bytes"
        },
        {
          "indexed": false,
          "internalType": "uint64",
          "name": "_nonce",
          "type": "uint64"
        },
        {
          "indexed": false,
          "internalType": "bytes",
          "name": "_payload",
          "type": "bytes"
        },
        {
          "indexed": false,
          "internalType": "bytes",
          "name": "_reason",
          "type": "bytes"
        }
      ],
      "name": "MessageFailed",
      "type": "event"
    },
    {
      "anonymous": false,
      "inputs": [
        {
          "indexed": false,
          "internalType": "uint256",
          "name": "_tokenId",
          "type": "uint256"
        }
      ],
      "name": "MetadataUpdate",
      "type": "event"
    },
    {
      "anonymous": false,
      "inputs": [
        {
          "indexed": true,
          "internalType": "address",
          "name": "previousOwner",
          "type": "address"
        },
        {
          "indexed": true,
          "internalType": "address",
          "name": "newOwner",
          "type": "address"
        }
      ],
      "name": "OwnershipTransferred",
      "type": "event"
    },
    {
      "anonymous": false,
      "inputs": [
        {
          "indexed": true,
          "internalType": "uint16",
          "name": "_srcChainId",
          "type": "uint16"
        },
        {
          "indexed": true,
          "internalType": "bytes",
          "name": "_srcAddress",
          "type": "bytes"
        },
        {
          "indexed": true,
          "internalType": "address",
          "name": "_toAddress",
          "type": "address"
        },
        {
          "indexed": false,
          "internalType": "uint256[]",
          "name": "_tokenIds",
          "type": "uint256[]"
        }
      ],
      "name": "ReceiveFromChain",
      "type": "event"
    },
    {
      "anonymous": false,
      "inputs": [
        {
          "indexed": false,
          "internalType": "uint16",
          "name": "_srcChainId",
          "type": "uint16"
        },
        {
          "indexed": false,
          "internalType": "bytes",
          "name": "_srcAddress",
          "type": "bytes"
        },
        {
          "indexed": false,
          "internalType": "uint64",
          "name": "_nonce",
          "type": "uint64"
        },
        {
          "indexed": false,
          "internalType": "bytes32",
          "name": "_payloadHash",
          "type": "bytes32"
        }
      ],
      "name": "RetryMessageSuccess",
      "type": "event"
    },
    {
      "anonymous": false,
      "inputs": [
        {
          "indexed": true,
          "internalType": "uint16",
          "name": "_dstChainId",
          "type": "uint16"
        },
        {
          "indexed": true,
          "internalType": "address",
          "name": "_from",
          "type": "address"
        },
        {
          "indexed": true,
          "internalType": "bytes",
          "name": "_toAddress",
          "type": "bytes"
        },
        {
          "indexed": false,
          "internalType": "uint256[]",
          "name": "_tokenIds",
          "type": "uint256[]"
        }
      ],
      "name": "SendToChain",
      "type": "event"
    },
    {
      "anonymous": false,
      "inputs": [
        {
          "indexed": false,
          "internalType": "uint16",
          "name": "_dstChainId",
          "type": "uint16"
        },
        {
          "indexed": false,
          "internalType": "uint256",
          "name": "_dstChainIdToBatchLimit",
          "type": "uint256"
        }
      ],
      "name": "SetDstChainIdToBatchLimit",
      "type": "event"
    },
    {
      "anonymous": false,
      "inputs": [
        {
          "indexed": false,
          "internalType": "uint16",
          "name": "_dstChainId",
          "type": "uint16"
        },
        {
          "indexed": false,
          "internalType": "uint256",
          "name": "_dstChainIdToTransferGas",
          "type": "uint256"
        }
      ],
      "name": "SetDstChainIdToTransferGas",
      "type": "event"
    },
    {
      "anonymous": false,
      "inputs": [
        {
          "indexed": false,
          "internalType": "uint16",
          "name": "_dstChainId",
          "type": "uint16"
        },
        {
          "indexed": false,
          "internalType": "uint16",
          "name": "_type",
          "type": "uint16"
        },
        {
          "indexed": false,
          "internalType": "uint256",
          "name": "_minDstGas",
          "type": "uint256"
        }
      ],
      "name": "SetMinDstGas",
      "type": "event"
    },
    {
      "anonymous": false,
      "inputs": [
        {
          "indexed": false,
          "internalType": "uint256",
          "name": "_minGasToTransferAndStore",
          "type": "uint256"
        }
      ],
      "name": "SetMinGasToTransferAndStore",
      "type": "event"
    },
    {
      "anonymous": false,
      "inputs": [
        {
          "indexed": false,
          "internalType": "address",
          "name": "precrime",
          "type": "address"
        }
      ],
      "name": "SetPrecrime",
      "type": "event"
    },
    {
      "anonymous": false,
      "inputs": [
        {
          "indexed": false,
          "internalType": "uint16",
          "name": "_remoteChainId",
          "type": "uint16"
        },
        {
          "indexed": false,
          "internalType": "bytes",
          "name": "_path",
          "type": "bytes"
        }
      ],
      "name": "SetTrustedRemote",
      "type": "event"
    },
    {
      "anonymous": false,
      "inputs": [
        {
          "indexed": false,
          "internalType": "uint16",
          "name": "_remoteChainId",
          "type": "uint16"
        },
        {
          "indexed": false,
          "internalType": "bytes",
          "name": "_remoteAddress",
          "type": "bytes"
        }
      ],
      "name": "SetTrustedRemoteAddress",
      "type": "event"
    },
    {
      "anonymous": false,
      "inputs": [
        {
          "indexed": true,
          "internalType": "uint256",
          "name": "tokenId",
          "type": "uint256"
        },
        {
          "indexed": true,
          "internalType": "address",
          "name": "owner",
          "type": "address"
        },
        {
          "indexed": false,
          "internalType": "string",
          "name": "tokenURI",
          "type": "string"
        },
        {
          "indexed": false,
          "internalType": "uint256",
          "name": "price",
          "type": "uint256"
        }
      ],
      "name": "TokenCreated",
      "type": "event"
    },
    {
      "anonymous": false,
      "inputs": [
        {
          "indexed": true,
          "internalType": "uint256",
          "name": "tokenId",
          "type": "uint256"
        },
        {
          "indexed": true,
          "internalType": "address",
          "name": "sender",
          "type": "address"
        },
        {
          "indexed": false,
          "internalType": "string",
          "name": "tokenURI",
          "type": "string"
        }
      ],
      "name": "TokenReceived",
      "type": "event"
    },
    {
      "anonymous": false,
      "inputs": [
        {
          "indexed": true,
          "internalType": "uint256",
          "name": "tokenId",
          "type": "uint256"
        },
        {
          "indexed": true,
          "internalType": "address",
          "name": "sender",
          "type": "address"
        },
        {
          "indexed": true,
          "internalType": "uint16",
          "name": "dstChainId",
          "type": "uint16"
        },
        {
          "indexed": false,
          "internalType": "string",
          "name": "tokenURI",
          "type": "string"
        }
      ],
      "name": "TokenSent",
      "type": "event"
    },
    {
      "anonymous": false,
      "inputs": [
        {
          "indexed": true,
          "internalType": "address",
          "name": "from",
          "type": "address"
        },
        {
          "indexed": true,
          "internalType": "address",
          "name": "to",
          "type": "address"
        },
        {
          "indexed": true,
          "internalType": "uint256",
          "name": "tokenId",
          "type": "uint256"
        }
      ],
      "name": "Transfer",
      "type": "event"
    },
    {
      "inputs": [],
      "name": "DEFAULT_PAYLOAD_SIZE_LIMIT",
      "outputs": [
        {
          "internalType": "uint256",
          "name": "",
          "type": "uint256"
        }
      ],
      "stateMutability": "view",
      "type": "function"
    },
    {
      "inputs": [],
      "name": "FUNCTION_TYPE_SEND",
      "outputs": [
        {
          "internalType": "uint16",
          "name": "",
          "type": "uint16"
        }
      ],
      "stateMutability": "view",
      "type": "function"
    },
    {
      "inputs": [
        {
          "internalType": "address",
          "name": "to",
          "type": "address"
        },
        {
          "internalType": "uint256",
          "name": "tokenId",
          "type": "uint256"
        }
      ],
      "name": "approve",
      "outputs": [],
      "stateMutability": "nonpayable",
      "type": "function"
    },
    {
      "inputs": [
        {
          "internalType": "address",
          "name": "owner",
          "type": "address"
        }
      ],
      "name": "balanceOf",
      "outputs": [
        {
          "internalType": "uint256",
          "name": "",
          "type": "uint256"
        }
      ],
      "stateMutability": "view",
      "type": "function"
    },
    {
      "inputs": [
        {
          "internalType": "uint256",
          "name": "tokenId",
          "type": "uint256"
        }
      ],
      "name": "cancelListing",
      "outputs": [],
      "stateMutability": "payable",
      "type": "function"
    },
    {
      "inputs": [
        {
          "internalType": "bytes",
          "name": "_payload",
          "type": "bytes"
        }
      ],
      "name": "clearCredits",
      "outputs": [],
      "stateMutability": "nonpayable",
      "type": "function"
    },
    {
      "inputs": [
        {
          "internalType": "uint256",
          "name": "tokenId",
          "type": "uint256"
        }
      ],
      "name": "createMarketSale",
      "outputs": [],
      "stateMutability": "payable",
      "type": "function"
    },
    {
      "inputs": [
        {
          "internalType": "string",
          "name": "tokenURI",
          "type": "string"
        },
        {
          "internalType": "uint256",
          "name": "price",
          "type": "uint256"
        }
      ],
      "name": "createToken",
      "outputs": [
        {
          "internalType": "uint256",
          "name": "",
          "type": "uint256"
        }
      ],
      "stateMutability": "payable",
      "type": "function"
    },
    {
      "inputs": [
        {
          "internalType": "uint16",
          "name": "",
          "type": "uint16"
        }
      ],
      "name": "dstChainIdToBatchLimit",
      "outputs": [
        {
          "internalType": "uint256",
          "name": "",
          "type": "uint256"
        }
      ],
      "stateMutability": "view",
      "type": "function"
    },
    {
      "inputs": [
        {
          "internalType": "uint16",
          "name": "",
          "type": "uint16"
        }
      ],
      "name": "dstChainIdToTransferGas",
      "outputs": [
        {
          "internalType": "uint256",
          "name": "",
          "type": "uint256"
        }
      ],
      "stateMutability": "view",
      "type": "function"
    },
    {
      "inputs": [
        {
          "internalType": "uint16",
          "name": "_dstChainId",
          "type": "uint16"
        },
        {
          "internalType": "bytes",
          "name": "_toAddress",
          "type": "bytes"
        },
        {
          "internalType": "uint256[]",
          "name": "_tokenIds",
          "type": "uint256[]"
        },
        {
          "internalType": "bool",
          "name": "_useZro",
          "type": "bool"
        },
        {
          "internalType": "bytes",
          "name": "_adapterParams",
          "type": "bytes"
        }
      ],
      "name": "estimateSendBatchFee",
      "outputs": [
        {
          "internalType": "uint256",
          "name": "nativeFee",
          "type": "uint256"
        },
        {
          "internalType": "uint256",
          "name": "zroFee",
          "type": "uint256"
        }
      ],
      "stateMutability": "view",
      "type": "function"
    },
    {
      "inputs": [
        {
          "internalType": "uint16",
          "name": "_dstChainId",
          "type": "uint16"
        },
        {
          "internalType": "bytes",
          "name": "_toAddress",
          "type": "bytes"
        },
        {
          "internalType": "uint256",
          "name": "_tokenId",
          "type": "uint256"
        },
        {
          "internalType": "bool",
          "name": "_useZro",
          "type": "bool"
        },
        {
          "internalType": "bytes",
          "name": "_adapterParams",
          "type": "bytes"
        }
      ],
      "name": "estimateSendFee",
      "outputs": [
        {
          "internalType": "uint256",
          "name": "nativeFee",
          "type": "uint256"
        },
        {
          "internalType": "uint256",
          "name": "zroFee",
          "type": "uint256"
        }
      ],
      "stateMutability": "view",
      "type": "function"
    },
    {
      "inputs": [
        {
          "internalType": "uint16",
          "name": "",
          "type": "uint16"
        },
        {
          "internalType": "bytes",
          "name": "",
          "type": "bytes"
        },
        {
          "internalType": "uint64",
          "name": "",
          "type": "uint64"
        }
      ],
      "name": "failedMessages",
      "outputs": [
        {
          "internalType": "bytes32",
          "name": "",
          "type": "bytes32"
        }
      ],
      "stateMutability": "view",
      "type": "function"
    },
    {
      "inputs": [],
      "name": "fetchItemsListed",
      "outputs": [
        {
          "components": [
            {
              "internalType": "uint256",
              "name": "tokenId",
              "type": "uint256"
            },
            {
              "internalType": "address payable",
              "name": "seller",
              "type": "address"
            },
            {
              "internalType": "address payable",
              "name": "owner",
              "type": "address"
            },
            {
              "internalType": "uint256",
              "name": "price",
              "type": "uint256"
            },
            {
              "internalType": "bool",
              "name": "sold",
              "type": "bool"
            },
            {
              "internalType": "uint256",
              "name": "creationTimestamp",
              "type": "uint256"
            }
          ],
          "internalType": "struct mainnetSendV2.MarketItem[]",
          "name": "",
          "type": "tuple[]"
        }
      ],
      "stateMutability": "view",
      "type": "function"
    },
    {
      "inputs": [],
      "name": "fetchMarketItems",
      "outputs": [
        {
          "components": [
            {
              "internalType": "uint256",
              "name": "tokenId",
              "type": "uint256"
            },
            {
              "internalType": "address payable",
              "name": "seller",
              "type": "address"
            },
            {
              "internalType": "address payable",
              "name": "owner",
              "type": "address"
            },
            {
              "internalType": "uint256",
              "name": "price",
              "type": "uint256"
            },
            {
              "internalType": "bool",
              "name": "sold",
              "type": "bool"
            },
            {
              "internalType": "uint256",
              "name": "creationTimestamp",
              "type": "uint256"
            }
          ],
          "internalType": "struct mainnetSendV2.MarketItem[]",
          "name": "",
          "type": "tuple[]"
        }
      ],
      "stateMutability": "view",
      "type": "function"
    },
    {
      "inputs": [],
      "name": "fetchMyNFTs",
      "outputs": [
        {
          "components": [
            {
              "internalType": "uint256",
              "name": "tokenId",
              "type": "uint256"
            },
            {
              "internalType": "address payable",
              "name": "seller",
              "type": "address"
            },
            {
              "internalType": "address payable",
              "name": "owner",
              "type": "address"
            },
            {
              "internalType": "uint256",
              "name": "price",
              "type": "uint256"
            },
            {
              "internalType": "bool",
              "name": "sold",
              "type": "bool"
            },
            {
              "internalType": "uint256",
              "name": "creationTimestamp",
              "type": "uint256"
            }
          ],
          "internalType": "struct mainnetSendV2.MarketItem[]",
          "name": "",
          "type": "tuple[]"
        }
      ],
      "stateMutability": "view",
      "type": "function"
    },
    {
      "inputs": [
        {
          "internalType": "uint16",
          "name": "_srcChainId",
          "type": "uint16"
        },
        {
          "internalType": "bytes",
          "name": "_srcAddress",
          "type": "bytes"
        }
      ],
      "name": "forceResumeReceive",
      "outputs": [],
      "stateMutability": "nonpayable",
      "type": "function"
    },
    {
      "inputs": [
        {
          "internalType": "uint256",
          "name": "tokenId",
          "type": "uint256"
        }
      ],
      "name": "getApproved",
      "outputs": [
        {
          "internalType": "address",
          "name": "",
          "type": "address"
        }
      ],
      "stateMutability": "view",
      "type": "function"
    },
    {
      "inputs": [
        {
          "internalType": "uint16",
          "name": "_version",
          "type": "uint16"
        },
        {
          "internalType": "uint16",
          "name": "_chainId",
          "type": "uint16"
        },
        {
          "internalType": "address",
          "name": "",
          "type": "address"
        },
        {
          "internalType": "uint256",
          "name": "_configType",
          "type": "uint256"
        }
      ],
      "name": "getConfig",
      "outputs": [
        {
          "internalType": "bytes",
          "name": "",
          "type": "bytes"
        }
      ],
      "stateMutability": "view",
      "type": "function"
    },
    {
      "inputs": [
        {
          "internalType": "uint16",
          "name": "_remoteChainId",
          "type": "uint16"
        }
      ],
      "name": "getTrustedRemoteAddress",
      "outputs": [
        {
          "internalType": "bytes",
          "name": "",
          "type": "bytes"
        }
      ],
      "stateMutability": "view",
      "type": "function"
    },
    {
      "inputs": [
        {
          "internalType": "address",
          "name": "owner",
          "type": "address"
        },
        {
          "internalType": "address",
          "name": "operator",
          "type": "address"
        }
      ],
      "name": "isApprovedForAll",
      "outputs": [
        {
          "internalType": "bool",
          "name": "",
          "type": "bool"
        }
      ],
      "stateMutability": "view",
      "type": "function"
    },
    {
      "inputs": [
        {
          "internalType": "uint16",
          "name": "_srcChainId",
          "type": "uint16"
        },
        {
          "internalType": "bytes",
          "name": "_srcAddress",
          "type": "bytes"
        }
      ],
      "name": "isTrustedRemote",
      "outputs": [
        {
          "internalType": "bool",
          "name": "",
          "type": "bool"
        }
      ],
      "stateMutability": "view",
      "type": "function"
    },
    {
      "inputs": [
        {
          "internalType": "uint256",
          "name": "",
          "type": "uint256"
        }
      ],
      "name": "lockedOwnerToken",
      "outputs": [
        {
          "internalType": "address",
          "name": "",
          "type": "address"
        }
      ],
      "stateMutability": "view",
      "type": "function"
    },
    {
      "inputs": [],
      "name": "lzEndpoint",
      "outputs": [
        {
          "internalType": "contract ILayerZeroEndpoint",
          "name": "",
          "type": "address"
        }
      ],
      "stateMutability": "view",
      "type": "function"
    },
    {
      "inputs": [
        {
          "internalType": "uint16",
          "name": "_srcChainId",
          "type": "uint16"
        },
        {
          "internalType": "bytes",
          "name": "_srcAddress",
          "type": "bytes"
        },
        {
          "internalType": "uint64",
          "name": "_nonce",
          "type": "uint64"
        },
        {
          "internalType": "bytes",
          "name": "_payload",
          "type": "bytes"
        }
      ],
      "name": "lzReceive",
      "outputs": [],
      "stateMutability": "nonpayable",
      "type": "function"
    },
    {
      "inputs": [
        {
          "internalType": "uint16",
          "name": "",
          "type": "uint16"
        },
        {
          "internalType": "uint16",
          "name": "",
          "type": "uint16"
        }
      ],
      "name": "minDstGasLookup",
      "outputs": [
        {
          "internalType": "uint256",
          "name": "",
          "type": "uint256"
        }
      ],
      "stateMutability": "view",
      "type": "function"
    },
    {
      "inputs": [],
      "name": "minGasToTransferAndStore",
      "outputs": [
        {
          "internalType": "uint256",
          "name": "",
          "type": "uint256"
        }
      ],
      "stateMutability": "view",
      "type": "function"
    },
    {
      "inputs": [],
      "name": "name",
      "outputs": [
        {
          "internalType": "string",
          "name": "",
          "type": "string"
        }
      ],
      "stateMutability": "view",
      "type": "function"
    },
    {
      "inputs": [
        {
          "internalType": "uint16",
          "name": "_srcChainId",
          "type": "uint16"
        },
        {
          "internalType": "bytes",
          "name": "_srcAddress",
          "type": "bytes"
        },
        {
          "internalType": "uint64",
          "name": "_nonce",
          "type": "uint64"
        },
        {
          "internalType": "bytes",
          "name": "_payload",
          "type": "bytes"
        }
      ],
      "name": "nonblockingLzReceive",
      "outputs": [],
      "stateMutability": "nonpayable",
      "type": "function"
    },
    {
      "inputs": [],
      "name": "owner",
      "outputs": [
        {
          "internalType": "address",
          "name": "",
          "type": "address"
        }
      ],
      "stateMutability": "view",
      "type": "function"
    },
    {
      "inputs": [
        {
          "internalType": "uint256",
          "name": "tokenId",
          "type": "uint256"
        }
      ],
      "name": "ownerOf",
      "outputs": [
        {
          "internalType": "address",
          "name": "",
          "type": "address"
        }
      ],
      "stateMutability": "view",
      "type": "function"
    },
    {
      "inputs": [
        {
          "internalType": "uint16",
          "name": "",
          "type": "uint16"
        }
      ],
      "name": "payloadSizeLimitLookup",
      "outputs": [
        {
          "internalType": "uint256",
          "name": "",
          "type": "uint256"
        }
      ],
      "stateMutability": "view",
      "type": "function"
    },
    {
      "inputs": [],
      "name": "precrime",
      "outputs": [
        {
          "internalType": "address",
          "name": "",
          "type": "address"
        }
      ],
      "stateMutability": "view",
      "type": "function"
    },
    {
      "inputs": [],
      "name": "renounceOwnership",
      "outputs": [],
      "stateMutability": "nonpayable",
      "type": "function"
    },
    {
      "inputs": [
        {
          "internalType": "uint256",
          "name": "tokenId",
          "type": "uint256"
        },
        {
          "internalType": "uint256",
          "name": "price",
          "type": "uint256"
        }
      ],
      "name": "resellToken",
      "outputs": [],
      "stateMutability": "payable",
      "type": "function"
    },
    {
      "inputs": [
        {
          "internalType": "uint16",
          "name": "_srcChainId",
          "type": "uint16"
        },
        {
          "internalType": "bytes",
          "name": "_srcAddress",
          "type": "bytes"
        },
        {
          "internalType": "uint64",
          "name": "_nonce",
          "type": "uint64"
        },
        {
          "internalType": "bytes",
          "name": "_payload",
          "type": "bytes"
        }
      ],
      "name": "retryMessage",
      "outputs": [],
      "stateMutability": "payable",
      "type": "function"
    },
    {
      "inputs": [
        {
          "internalType": "address",
          "name": "from",
          "type": "address"
        },
        {
          "internalType": "address",
          "name": "to",
          "type": "address"
        },
        {
          "internalType": "uint256",
          "name": "tokenId",
          "type": "uint256"
        }
      ],
      "name": "safeTransferFrom",
      "outputs": [],
      "stateMutability": "nonpayable",
      "type": "function"
    },
    {
      "inputs": [
        {
          "internalType": "address",
          "name": "from",
          "type": "address"
        },
        {
          "internalType": "address",
          "name": "to",
          "type": "address"
        },
        {
          "internalType": "uint256",
          "name": "tokenId",
          "type": "uint256"
        },
        {
          "internalType": "bytes",
          "name": "data",
          "type": "bytes"
        }
      ],
      "name": "safeTransferFrom",
      "outputs": [],
      "stateMutability": "nonpayable",
      "type": "function"
    },
    {
      "inputs": [
        {
          "internalType": "address",
          "name": "_from",
          "type": "address"
        },
        {
          "internalType": "uint16",
          "name": "_dstChainId",
          "type": "uint16"
        },
        {
          "internalType": "bytes",
          "name": "_toAddress",
          "type": "bytes"
        },
        {
          "internalType": "uint256[]",
          "name": "_tokenIds",
          "type": "uint256[]"
        },
        {
          "internalType": "address payable",
          "name": "_refundAddress",
          "type": "address"
        },
        {
          "internalType": "address",
          "name": "_zroPaymentAddress",
          "type": "address"
        },
        {
          "internalType": "bytes",
          "name": "_adapterParams",
          "type": "bytes"
        }
      ],
      "name": "sendBatchFrom",
      "outputs": [],
      "stateMutability": "payable",
      "type": "function"
    },
    {
      "inputs": [
        {
          "internalType": "address",
          "name": "_from",
          "type": "address"
        },
        {
          "internalType": "uint16",
          "name": "_dstChainId",
          "type": "uint16"
        },
        {
          "internalType": "bytes",
          "name": "_toAddress",
          "type": "bytes"
        },
        {
          "internalType": "uint256",
          "name": "_tokenId",
          "type": "uint256"
        },
        {
          "internalType": "address payable",
          "name": "_refundAddress",
          "type": "address"
        },
        {
          "internalType": "address",
          "name": "_zroPaymentAddress",
          "type": "address"
        },
        {
          "internalType": "bytes",
          "name": "_adapterParams",
          "type": "bytes"
        }
      ],
      "name": "sendFrom",
      "outputs": [],
      "stateMutability": "payable",
      "type": "function"
    },
    {
      "inputs": [
        {
          "internalType": "uint16",
          "name": "destChainId",
          "type": "uint16"
        },
        {
          "internalType": "uint256",
          "name": "tokenId",
          "type": "uint256"
        },
        {
          "internalType": "bytes",
          "name": "adapter",
          "type": "bytes"
        }
      ],
      "name": "sendOnft",
      "outputs": [],
      "stateMutability": "payable",
      "type": "function"
    },
    {
      "inputs": [
        {
          "internalType": "address",
          "name": "operator",
          "type": "address"
        },
        {
          "internalType": "bool",
          "name": "approved",
          "type": "bool"
        }
      ],
      "name": "setApprovalForAll",
      "outputs": [],
      "stateMutability": "nonpayable",
      "type": "function"
    },
    {
      "inputs": [
        {
          "internalType": "uint16",
          "name": "_version",
          "type": "uint16"
        },
        {
          "internalType": "uint16",
          "name": "_chainId",
          "type": "uint16"
        },
        {
          "internalType": "uint256",
          "name": "_configType",
          "type": "uint256"
        },
        {
          "internalType": "bytes",
          "name": "_config",
          "type": "bytes"
        }
      ],
      "name": "setConfig",
      "outputs": [],
      "stateMutability": "nonpayable",
      "type": "function"
    },
    {
      "inputs": [
        {
          "internalType": "uint16",
          "name": "_dstChainId",
          "type": "uint16"
        },
        {
          "internalType": "uint256",
          "name": "_dstChainIdToBatchLimit",
          "type": "uint256"
        }
      ],
      "name": "setDstChainIdToBatchLimit",
      "outputs": [],
      "stateMutability": "nonpayable",
      "type": "function"
    },
    {
      "inputs": [
        {
          "internalType": "uint16",
          "name": "_dstChainId",
          "type": "uint16"
        },
        {
          "internalType": "uint256",
          "name": "_dstChainIdToTransferGas",
          "type": "uint256"
        }
      ],
      "name": "setDstChainIdToTransferGas",
      "outputs": [],
      "stateMutability": "nonpayable",
      "type": "function"
    },
    {
      "inputs": [
        {
          "internalType": "uint16",
          "name": "_dstChainId",
          "type": "uint16"
        },
        {
          "internalType": "uint16",
          "name": "_packetType",
          "type": "uint16"
        },
        {
          "internalType": "uint256",
          "name": "_minGas",
          "type": "uint256"
        }
      ],
      "name": "setMinDstGas",
      "outputs": [],
      "stateMutability": "nonpayable",
      "type": "function"
    },
    {
      "inputs": [
        {
          "internalType": "uint256",
          "name": "_minGasToTransferAndStore",
          "type": "uint256"
        }
      ],
      "name": "setMinGasToTransferAndStore",
      "outputs": [],
      "stateMutability": "nonpayable",
      "type": "function"
    },
    {
      "inputs": [
        {
          "internalType": "uint16",
          "name": "_dstChainId",
          "type": "uint16"
        },
        {
          "internalType": "uint256",
          "name": "_size",
          "type": "uint256"
        }
      ],
      "name": "setPayloadSizeLimit",
      "outputs": [],
      "stateMutability": "nonpayable",
      "type": "function"
    },
    {
      "inputs": [
        {
          "internalType": "address",
          "name": "_precrime",
          "type": "address"
        }
      ],
      "name": "setPrecrime",
      "outputs": [],
      "stateMutability": "nonpayable",
      "type": "function"
    },
    {
      "inputs": [
        {
          "internalType": "uint16",
          "name": "_version",
          "type": "uint16"
        }
      ],
      "name": "setReceiveVersion",
      "outputs": [],
      "stateMutability": "nonpayable",
      "type": "function"
    },
    {
      "inputs": [
        {
          "internalType": "uint16",
          "name": "_version",
          "type": "uint16"
        }
      ],
      "name": "setSendVersion",
      "outputs": [],
      "stateMutability": "nonpayable",
      "type": "function"
    },
    {
      "inputs": [
        {
          "internalType": "uint16",
          "name": "_remoteChainId",
          "type": "uint16"
        },
        {
          "internalType": "bytes",
          "name": "_path",
          "type": "bytes"
        }
      ],
      "name": "setTrustedRemote",
      "outputs": [],
      "stateMutability": "nonpayable",
      "type": "function"
    },
    {
      "inputs": [
        {
          "internalType": "uint16",
          "name": "_remoteChainId",
          "type": "uint16"
        },
        {
          "internalType": "bytes",
          "name": "_remoteAddress",
          "type": "bytes"
        }
      ],
      "name": "setTrustedRemoteAddress",
      "outputs": [],
      "stateMutability": "nonpayable",
      "type": "function"
    },
    {
      "inputs": [
        {
          "internalType": "bytes32",
          "name": "",
          "type": "bytes32"
        }
      ],
      "name": "storedCredits",
      "outputs": [
        {
          "internalType": "uint16",
          "name": "srcChainId",
          "type": "uint16"
        },
        {
          "internalType": "address",
          "name": "toAddress",
          "type": "address"
        },
        {
          "internalType": "uint256",
          "name": "index",
          "type": "uint256"
        },
        {
          "internalType": "bool",
          "name": "creditsRemain",
          "type": "bool"
        }
      ],
      "stateMutability": "view",
      "type": "function"
    },
    {
      "inputs": [
        {
          "internalType": "bytes4",
          "name": "interfaceId",
          "type": "bytes4"
        }
      ],
      "name": "supportsInterface",
      "outputs": [
        {
          "internalType": "bool",
          "name": "",
          "type": "bool"
        }
      ],
      "stateMutability": "view",
      "type": "function"
    },
    {
      "inputs": [],
      "name": "symbol",
      "outputs": [
        {
          "internalType": "string",
          "name": "",
          "type": "string"
        }
      ],
      "stateMutability": "view",
      "type": "function"
    },
    {
      "inputs": [
        {
          "internalType": "uint256",
          "name": "tokenId",
          "type": "uint256"
        }
      ],
      "name": "tokenURI",
      "outputs": [
        {
          "internalType": "string",
          "name": "",
          "type": "string"
        }
      ],
      "stateMutability": "view",
      "type": "function"
    },
    {
      "inputs": [
        {
          "internalType": "address",
          "name": "from",
          "type": "address"
        },
        {
          "internalType": "address",
          "name": "to",
          "type": "address"
        },
        {
          "internalType": "uint256",
          "name": "tokenId",
          "type": "uint256"
        }
      ],
      "name": "transferFrom",
      "outputs": [],
      "stateMutability": "nonpayable",
      "type": "function"
    },
    {
      "inputs": [
        {
          "internalType": "address",
          "name": "newOwner",
          "type": "address"
        }
      ],
      "name": "transferOwnership",
      "outputs": [],
      "stateMutability": "nonpayable",
      "type": "function"
    },
    {
      "inputs": [
        {
          "internalType": "uint16",
          "name": "",
          "type": "uint16"
        }
      ],
      "name": "trustedRemoteLookup",
      "outputs": [
        {
          "internalType": "bytes",
          "name": "",
          "type": "bytes"
        }
      ],
      "stateMutability": "view",
      "type": "function"
    },
    {
      "inputs": [],
      "name": "withdraw",
      "outputs": [],
      "stateMutability": "payable",
      "type": "function"
    },
    {
      "stateMutability": "payable",
      "type": "receive"
    }
  ],
  "bytecode": "0x60a06040523480156200001157600080fd5b506040516200634b3803806200634b8339810160408190526200003491620001fc565b8484848480806200004533620000e7565b6001600160a01b031660805250600160065581620000b55760405162461bcd60e51b8152602060048201526024808201527f6d696e476173546f5472616e73666572416e6453746f7265206d7573742062656044820152630203e20360e41b606482015260840160405180910390fd5b50600755600b620000c783826200032c565b50600c620000d682826200032c565b50505060125550620003f892505050565b600080546001600160a01b038381166001600160a01b0319831681178455604051919092169283917f8be0079c531659141344cd1fd0a4f28419497f9722a3daafe3b4186f6b6457e09190a35050565b634e487b7160e01b600052604160045260246000fd5b600082601f8301126200015f57600080fd5b81516001600160401b03808211156200017c576200017c62000137565b604051601f8301601f19908116603f01168101908282118183101715620001a757620001a762000137565b81604052838152602092508683858801011115620001c457600080fd5b600091505b83821015620001e85785820183015181830184015290820190620001c9565b600093810190920192909252949350505050565b600080600080600060a086880312156200021557600080fd5b85516001600160401b03808211156200022d57600080fd5b6200023b89838a016200014d565b965060208801519150808211156200025257600080fd5b5062000261888289016200014d565b60408801516060890151919650945090506001600160a01b03811681146200028857600080fd5b80925050608086015190509295509295909350565b600181811c90821680620002b257607f821691505b602082108103620002d357634e487b7160e01b600052602260045260246000fd5b50919050565b601f8211156200032757600081815260208120601f850160051c81016020861015620003025750805b601f850160051c820191505b8181101562000323578281556001016200030e565b5050505b505050565b81516001600160401b0381111562000348576200034862000137565b62000360816200035984546200029d565b84620002d9565b602080601f8311600181146200039857600084156200037f5750858301515b600019600386901b1c1916600185901b17855562000323565b600085815260208120601f198616915b82811015620003c957888601518255948401946001909101908401620003a8565b5085821015620003e85787850151600019600388901b60f8161c191681555b5050505050600190811b01905550565b608051615eff6200044c6000396000818161093401528181610b6b01528181610e6f0152818161150101528181611b8301528181612f660152818161345d015281816135900152613cf10152615eff6000f3fe6080604052600436106103255760003560e01c806372b3b620116101a7578063baf3292d116100ed578063df2a5b3b11610090578063df2a5b3b14610a68578063e219fc7514610a88578063e985e9c514610a9b578063eb8d72b714610abb578063f235364114610adb578063f2fde38b14610afb578063f5ecbdbc14610b1b578063fa25f9b614610b3b57600080fd5b8063baf3292d14610976578063be1d17ba14610996578063be9af536146109cc578063c4461834146109df578063c87b56dd146109f5578063cbed8b9c14610a15578063d12473a514610a35578063d1deba1f14610a5557600080fd5b80639ea5d6b1116101555780639ea5d6b1146108675780639f38369a14610887578063a22cb465146108a7578063a6c3d165146108c7578063ab3ffb93146108e7578063af3fb21c146108fa578063b353aaa714610922578063b88d4fde1461095657600080fd5b806372b3b620146107895780637533d7881461079c5780638cfd8f5c146107bc5780638da5cb5b146107f45780638ffa1f2a14610812578063950c8a741461083257806395d89b411461085257600080fd5b80633ccfd60b1161026c5780634ac3f4ff1161021a5780634ac3f4ff14610672578063519056361461069f578063567e8627146106b25780635b8c41e6146106c55780636352211e1461071457806366ad5c8a1461073457806370a0823114610754578063715018a61461077457600080fd5b80633ccfd60b146105a45780633d8b38f6146105ac5780633f1f4fa4146105cc57806342842e0e1461060757806342d65a8d1461062757806345f8fa8014610647578063482881901461065c57600080fd5b80630df37483116102d45780630df37483146104425780630f08efe01461046257806310ddb13714610484578063202e3740146104a457806322a3ecf9146104b957806323b872dd1461053c5780632a205e3d1461055c578063305a67a81461059157600080fd5b80621d35671461033157806301ffc9a71461035357806306fdde031461038857806307e0db17146103aa578063081812fc146103ca578063095ea7b3146104025780630b4cad4c1461042257600080fd5b3661032c57005b600080fd5b34801561033d57600080fd5b5061035161034c366004614ae9565b610b68565b005b34801561035f57600080fd5b5061037361036e366004614b92565b610d99565b60405190151581526020015b60405180910390f35b34801561039457600080fd5b5061039d610dbc565b60405161037f9190614bff565b3480156103b657600080fd5b506103516103c5366004614c12565b610e4e565b3480156103d657600080fd5b506103ea6103e5366004614c2d565b610ed7565b6040516001600160a01b03909116815260200161037f565b34801561040e57600080fd5b5061035161041d366004614c66565b610efe565b34801561042e57600080fd5b5061035161043d366004614c2d565b611013565b34801561044e57600080fd5b5061035161045d366004614c92565b6110b3565b34801561046e57600080fd5b506104776110d2565b60405161037f9190614cae565b34801561049057600080fd5b5061035161049f366004614c12565b6114e0565b3480156104b057600080fd5b50610477611538565b3480156104c557600080fd5b5061050d6104d4366004614c2d565b600a6020526000908152604090208054600182015460029092015461ffff821692620100009092046001600160a01b0316919060ff1684565b6040805161ffff90951685526001600160a01b039093166020850152918301521515606082015260800161037f565b34801561054857600080fd5b50610351610557366004614d34565b61193b565b34801561056857600080fd5b5061057c610577366004614e50565b61196c565b6040805192835260208301919091520161037f565b61035161059f366004614c2d565b611992565b610351611a1f565b3480156105b857600080fd5b506103736105c7366004614ede565b611a7c565b3480156105d857600080fd5b506105f96105e7366004614c12565b60036020526000908152604090205481565b60405190815260200161037f565b34801561061357600080fd5b50610351610622366004614d34565b611b49565b34801561063357600080fd5b50610351610642366004614ede565b611b64565b34801561065357600080fd5b50610477611bea565b34801561066857600080fd5b506105f960075481565b34801561067e57600080fd5b506105f961068d366004614c12565b60086020526000908152604090205481565b6103516106ad366004614f30565b611fed565b6103516106c0366004614fe9565b612004565b3480156106d157600080fd5b506105f96106e036600461503f565b6005602090815260009384526040808520845180860184018051928152908401958401959095209452929052825290205481565b34801561072057600080fd5b506103ea61072f366004614c2d565b612223565b34801561074057600080fd5b5061035161074f366004614ae9565b612258565b34801561076057600080fd5b506105f961076f36600461509c565b612334565b34801561078057600080fd5b506103516123ba565b6105f96107973660046150b9565b6123ce565b3480156107a857600080fd5b5061039d6107b7366004614c12565b6125af565b3480156107c857600080fd5b506105f96107d7366004615111565b600260209081526000928352604080842090915290825290205481565b34801561080057600080fd5b506000546001600160a01b03166103ea565b34801561081e57600080fd5b5061035161082d366004615144565b612649565b34801561083e57600080fd5b506004546103ea906001600160a01b031681565b34801561085e57600080fd5b5061039d612891565b34801561087357600080fd5b50610351610882366004614c92565b6128a0565b34801561089357600080fd5b5061039d6108a2366004614c12565b612957565b3480156108b357600080fd5b506103516108c2366004615178565b612a66565b3480156108d357600080fd5b506103516108e2366004614ede565b612a75565b6103516108f536600461522d565b612afe565b34801561090657600080fd5b5061090f600181565b60405161ffff909116815260200161037f565b34801561092e57600080fd5b506103ea7f000000000000000000000000000000000000000000000000000000000000000081565b34801561096257600080fd5b506103516109713660046152e2565b612b0d565b34801561098257600080fd5b5061035161099136600461509c565b612b45565b3480156109a257600080fd5b506103ea6109b1366004614c2d565b6014602052600090815260409020546001600160a01b031681565b6103516109da366004614c2d565b612b9b565b3480156109eb57600080fd5b506105f961271081565b348015610a0157600080fd5b5061039d610a10366004614c2d565b612e37565b348015610a2157600080fd5b50610351610a3036600461534d565b612f47565b348015610a4157600080fd5b50610351610a50366004614c92565b612fdc565b610351610a63366004614ae9565b61308c565b348015610a7457600080fd5b50610351610a833660046153bb565b6132a2565b610351610a963660046153f7565b61330c565b348015610aa757600080fd5b50610373610ab6366004615419565b613396565b348015610ac757600080fd5b50610351610ad6366004614ede565b6133c4565b348015610ae757600080fd5b5061057c610af6366004615452565b61341e565b348015610b0757600080fd5b50610351610b1636600461509c565b6134e9565b348015610b2757600080fd5b5061039d610b363660046154cb565b61355f565b348015610b4757600080fd5b506105f9610b56366004614c12565b60096020526000908152604090205481565b337f00000000000000000000000000000000000000000000000000000000000000006001600160a01b031614610be55760405162461bcd60e51b815260206004820152601e60248201527f4c7a4170703a20696e76616c696420656e64706f696e742063616c6c6572000060448201526064015b60405180910390fd5b61ffff861660009081526001602052604081208054610c0390615518565b80601f0160208091040260200160405190810160405280929190818152602001828054610c2f90615518565b8015610c7c5780601f10610c5157610100808354040283529160200191610c7c565b820191906000526020600020905b815481529060010190602001808311610c5f57829003601f168201915b50505050509050805186869050148015610c97575060008151115b8015610cbf575080516020820120604051610cb59088908890615552565b6040518091039020145b610d1a5760405162461bcd60e51b815260206004820152602660248201527f4c7a4170703a20696e76616c696420736f757263652073656e64696e6720636f6044820152651b9d1c9858dd60d21b6064820152608401610bdc565b610d908787878080601f01602080910402602001604051908101604052809392919081815260200183838082843760009201919091525050604080516020601f8a018190048102820181019092528881528a93509150889088908190840183828082843760009201919091525061361092505050565b50505050505050565b60006001600160e01b031982161580610db65750610db682613689565b92915050565b6060600b8054610dcb90615518565b80601f0160208091040260200160405190810160405280929190818152602001828054610df790615518565b8015610e445780601f10610e1957610100808354040283529160200191610e44565b820191906000526020600020905b815481529060010190602001808311610e2757829003601f168201915b5050505050905090565b610e566136ae565b6040516307e0db1760e01b815261ffff821660048201527f00000000000000000000000000000000000000000000000000000000000000006001600160a01b0316906307e0db17906024015b600060405180830381600087803b158015610ebc57600080fd5b505af1158015610ed0573d6000803e3d6000fd5b5050505050565b6000610ee282613708565b506000908152600f60205260409020546001600160a01b031690565b6000610f0982612223565b9050806001600160a01b0316836001600160a01b031603610f765760405162461bcd60e51b815260206004820152602160248201527f4552433732313a20617070726f76616c20746f2063757272656e74206f776e656044820152603960f91b6064820152608401610bdc565b336001600160a01b0382161480610f925750610f928133613396565b6110045760405162461bcd60e51b815260206004820152603d60248201527f4552433732313a20617070726f76652063616c6c6572206973206e6f7420746f60448201527f6b656e206f776e6572206f7220617070726f76656420666f7220616c6c0000006064820152608401610bdc565b61100e838361372d565b505050565b61101b6136ae565b600081116110775760405162461bcd60e51b8152602060048201526024808201527f6d696e476173546f5472616e73666572416e6453746f7265206d7573742062656044820152630203e20360e41b6064820152608401610bdc565b60078190556040518181527ffebbc4f8bb9ec2313950c718d43123124b15778efda4c1f1d529de2995b4f34d906020015b60405180910390a150565b6110bb6136ae565b61ffff909116600090815260036020526040902055565b606060008060166000601254815260200190815260200160002080548060200260200160405190810160405280929190818152602001828054801561113657602002820191906000526020600020905b815481526020019060010190808311611122575b5050505050905060005b81518110156111b157600082828151811061115d5761115d615562565b60209081029190910181015160008181526013909252604090912060020154909150306001600160a01b039091160361119e5761119b60018561558e565b93505b50806111a9816155a1565b915050611140565b5060125460009081526015602090815260408083208054825181850281018501909352808352919290919083018282801561120b57602002820191906000526020600020905b8154815260200190600101908083116111f7575b5050505050905060005b815181101561128657600082828151811061123257611232615562565b60209081029190910181015160008181526013909252604090912060020154909150306001600160a01b03909116036112735761127060018661558e565b94505b508061127e816155a1565b915050611215565b506000836001600160401b038111156112a1576112a1614d75565b6040519080825280602002602001820160405280156112da57816020015b6112c7614a29565b8152602001906001900390816112bf5790505b5090506000805b84518110156113d95760008582815181106112fe576112fe615562565b60209081029190910181015160008181526013909252604090912060020154909150306001600160a01b03909116036113c657600081815260136020908152604091829020825160c0810184528154815260018201546001600160a01b039081169382019390935260028201549092169282019290925260038201546060820152600482015460ff161515608082015260059091015460a082015284518590859081106113ad576113ad615562565b60209081029190910101526113c360018461558e565b92505b50806113d1816155a1565b9150506112e1565b5060005b83518110156114d55760008482815181106113fa576113fa615562565b60209081029190910181015160008181526013909252604090912060020154909150306001600160a01b03909116036114c257600081815260136020908152604091829020825160c0810184528154815260018201546001600160a01b039081169382019390935260028201549092169282019290925260038201546060820152600482015460ff161515608082015260059091015460a082015284518590859081106114a9576114a9615562565b60209081029190910101526114bf60018461558e565b92505b50806114cd816155a1565b9150506113dd565b509095945050505050565b6114e86136ae565b6040516310ddb13760e01b815261ffff821660048201527f00000000000000000000000000000000000000000000000000000000000000006001600160a01b0316906310ddb13790602401610ea2565b606060008060166000601254815260200190815260200160002080548060200260200160405190810160405280929190818152602001828054801561159c57602002820191906000526020600020905b815481526020019060010190808311611588575b5050505050905060005b81518110156116175760008282815181106115c3576115c3615562565b60209081029190910181015160008181526013909252604090912060020154909150336001600160a01b03909116036116045761160160018561558e565b93505b508061160f816155a1565b9150506115a6565b5060125460009081526015602090815260408083208054825181850281018501909352808352919290919083018282801561167157602002820191906000526020600020905b81548152602001906001019080831161165d575b5050505050905060005b81518110156116ec57600082828151811061169857611698615562565b60209081029190910181015160008181526013909252604090912060020154909150336001600160a01b03909116036116d9576116d660018661558e565b94505b50806116e4816155a1565b91505061167b565b506000836001600160401b0381111561170757611707614d75565b60405190808252806020026020018201604052801561174057816020015b61172d614a29565b8152602001906001900390816117255790505b5090506000805b845181101561183f57600085828151811061176457611764615562565b60209081029190910181015160008181526013909252604090912060020154909150336001600160a01b039091160361182c57600081815260136020908152604091829020825160c0810184528154815260018201546001600160a01b039081169382019390935260028201549092169282019290925260038201546060820152600482015460ff161515608082015260059091015460a0820152845185908590811061181357611813615562565b602090810291909101015261182960018461558e565b92505b5080611837816155a1565b915050611747565b5060005b83518110156114d557600084828151811061186057611860615562565b60209081029190910181015160008181526013909252604090912060020154909150336001600160a01b039091160361192857600081815260136020908152604091829020825160c0810184528154815260018201546001600160a01b039081169382019390935260028201549092169282019290925260038201546060820152600482015460ff161515608082015260059091015460a0820152845185908590811061190f5761190f615562565b602090810291909101015261192560018461558e565b92505b5080611933816155a1565b915050611843565b611945338261379b565b6119615760405162461bcd60e51b8152600401610bdc906155ba565b61100e8383836137f9565b600080611984878761197d8861395d565b878761341e565b915091509550959350505050565b6000818152601360205260409020600101546001600160a01b031633146119cb5760405162461bcd60e51b8152600401610bdc90615607565b600081815260136020526040812060048101805460ff1916905560038101919091556001810180546001600160a01b03199081169091556002909101805433921682179055611a1c903090836137f9565b50565b611a276136ae565b604051600090339047908381818185875af1925050503d8060008114611a69576040519150601f19603f3d011682016040523d82523d6000602084013e611a6e565b606091505b5050905080611a1c57600080fd5b61ffff831660009081526001602052604081208054829190611a9d90615518565b80601f0160208091040260200160405190810160405280929190818152602001828054611ac990615518565b8015611b165780601f10611aeb57610100808354040283529160200191611b16565b820191906000526020600020905b815481529060010190602001808311611af957829003601f168201915b505050505090508383604051611b2d929190615552565b60405180910390208180519060200120149150505b9392505050565b61100e83838360405180602001604052806000815250612b0d565b611b6c6136ae565b6040516342d65a8d60e01b81526001600160a01b037f000000000000000000000000000000000000000000000000000000000000000016906342d65a8d90611bbc9086908690869060040161567a565b600060405180830381600087803b158015611bd657600080fd5b505af1158015610d90573d6000803e3d6000fd5b6060600080601660006012548152602001908152602001600020805480602002602001604051908101604052809291908181526020018280548015611c4e57602002820191906000526020600020905b815481526020019060010190808311611c3a575b5050505050905060005b8151811015611cc9576000828281518110611c7557611c75615562565b60209081029190910181015160008181526013909252604090912060010154909150336001600160a01b0390911603611cb657611cb360018561558e565b93505b5080611cc1816155a1565b915050611c58565b50601254600090815260156020908152604080832080548251818502810185019093528083529192909190830182828015611d2357602002820191906000526020600020905b815481526020019060010190808311611d0f575b5050505050905060005b8151811015611d9e576000828281518110611d4a57611d4a615562565b60209081029190910181015160008181526013909252604090912060010154909150336001600160a01b0390911603611d8b57611d8860018661558e565b94505b5080611d96816155a1565b915050611d2d565b506000836001600160401b03811115611db957611db9614d75565b604051908082528060200260200182016040528015611df257816020015b611ddf614a29565b815260200190600190039081611dd75790505b5090506000805b8451811015611ef1576000858281518110611e1657611e16615562565b60209081029190910181015160008181526013909252604090912060010154909150336001600160a01b0390911603611ede57600081815260136020908152604091829020825160c0810184528154815260018201546001600160a01b039081169382019390935260028201549092169282019290925260038201546060820152600482015460ff161515608082015260059091015460a08201528451859085908110611ec557611ec5615562565b6020908102919091010152611edb60018461558e565b92505b5080611ee9816155a1565b915050611df9565b5060005b83518110156114d5576000848281518110611f1257611f12615562565b60209081029190910181015160008181526013909252604090912060010154909150336001600160a01b0390911603611fda57600081815260136020908152604091829020825160c0810184528154815260018201546001600160a01b039081169382019390935260028201549092169282019290925260038201546060820152600482015460ff161515608082015260059091015460a08201528451859085908110611fc157611fc1615562565b6020908102919091010152611fd760018461558e565b92505b5080611fe5816155a1565b915050611ef5565b610d90878787611ffc8861395d565b8787876139a8565b61200c613b6f565b6000828152601360205260409020600201546001600160a01b031633146120895760405162461bcd60e51b815260206004820152602b60248201527f4f6e6c7920746f6b656e206f776e65722063616e20706572666f726d2074686960448201526a399037b832b930ba34b7b760a91b6064820152608401610bdc565b600061209483612e37565b905060006120a184612223565b905060008282866040516020016120ba93929190615698565b60408051601f1981840301815291815260008781526014602090815282822080546001600160a01b0388166001600160a01b031991821617909155601390915291902060020180549091169055905061211433308761193b565b604051655af3107a400090600090309083908381818185875af1925050503d806000811461215e576040519150601f19603f3d011682016040523d82523d6000602084013e612163565b606091505b50509050806121af5760405162461bcd60e51b8152602060048201526018602482015277185c1c15985b1d59481d1c985b9cd9995c8819985a5b195960421b6044820152606401610bdc565b60006121bb83346156c6565b90506121cc89853360008b86613bc8565b8861ffff16336001600160a01b0316897fd499fd7f4487aa5e24dde5275a88b3a12081fc436c7a1a2c433d51fc747f16ea8960405161220b9190614bff565b60405180910390a450505050505061100e6001600655565b6000818152600d60205260408120546001600160a01b031680610db65760405162461bcd60e51b8152600401610bdc906156d9565b3330146122b65760405162461bcd60e51b815260206004820152602660248201527f4e6f6e626c6f636b696e674c7a4170703a2063616c6c6572206d7573742062656044820152650204c7a4170760d41b6064820152608401610bdc565b61232c8686868080601f01602080910402602001604051908101604052809392919081815260200183838082843760009201919091525050604080516020601f890181900481028201810190925287815289935091508790879081908401838280828437600092019190915250613d6d92505050565b505050505050565b60006001600160a01b03821661239e5760405162461bcd60e51b815260206004820152602960248201527f4552433732313a2061646472657373207a65726f206973206e6f7420612076616044820152683634b21037bbb732b960b91b6064820152608401610bdc565b506001600160a01b03166000908152600e602052604090205490565b6123c26136ae565b6123cc6000613db4565b565b60008042336123de6001436156c6565b4085604051602001612416949392919093845260609290921b6001600160601b03191660208401526034830152605482015260740190565b60408051601f1981840301815291905280516020909101209050600061243f629896808361570b565b905061244a81613e04565b156124915760405162461bcd60e51b8152602060048201526017602482015276546f6b656e20494420616c72656164792065786973747360481b6044820152606401610bdc565b61249b3382613e21565b6124a58186613f2e565b336001600160a01b0316817f463ec2a62c46678a81e23cde640446ca4b512f102bb3309cf5a3e2a4ae83146487876040516124e192919061572d565b60405180910390a36040805160c0810182528281526000602080830182815233848601908152606085018a8152608086018581524260a0880190815289875260138652888720975188559351600180890180546001600160a01b03199081166001600160a01b0394851617909155945160028a018054909616921691909117909355905160038701555160048601805460ff19169115159190911790559051600590940193909355601254825260168152928120805492830181558152919091200181905591505092915050565b600160205260009081526040902080546125c890615518565b80601f01602080910402602001604051908101604052809291908181526020018280546125f490615518565b80156126415780601f1061261657610100808354040283529160200191612641565b820191906000526020600020905b81548152906001019060200180831161262457829003601f168201915b505050505081565b612651613b6f565b80516020808301919091206000818152600a90925260409091206002015460ff166126b25760405162461bcd60e51b81526020600482015260116024820152701b9bc818dc99591a5d1cc81cdd1bdc9959607a1b6044820152606401610bdc565b6000828060200190518101906126c8919061579f565b6000848152600a6020526040812080546001909101549294509092506127049161ffff8216916201000090046001600160a01b03169085613fe3565b6000848152600a602052604090206001015490915081116127795760405162461bcd60e51b815260206004820152602960248201527f6e6f7420656e6f7567682067617320746f2070726f6365737320637265646974604482015268103a3930b739b332b960b91b6064820152608401610bdc565b815181036127f0576000838152600a602052604080822080546001600160b01b031916815560018101929092556002909101805460ff19169055517fd7be02b8dd0d27bd0517a9cb4d7469ce27df4313821ae5ec1ff69acc594ba233906127e39085815260200190565b60405180910390a1612884565b604080516080810182526000858152600a6020818152848320805461ffff80821687526001600160a01b03620100008084048216868a019081529989018b8152600160608b01818152998f90529790965297519851169096026001600160b01b03199091169690951695909517939093178455915191830191909155516002909101805491151560ff199092169190911790555b505050611a1c6001600655565b6060600c8054610dcb90615518565b6128a86136ae565b600081116129035760405162461bcd60e51b815260206004820152602260248201527f647374436861696e4964546f42617463684c696d6974206d757374206265203e604482015261020360f41b6064820152608401610bdc565b61ffff8216600081815260086020908152604091829020849055815192835282018390527f7315f7654d594ead24a30160ed9ba2d23247f543016b918343591e93d7afdb6d91015b60405180910390a15050565b61ffff811660009081526001602052604081208054606092919061297a90615518565b80601f01602080910402602001604051908101604052809291908181526020018280546129a690615518565b80156129f35780601f106129c8576101008083540402835291602001916129f3565b820191906000526020600020905b8154815290600101906020018083116129d657829003601f168201915b505050505090508051600003612a4b5760405162461bcd60e51b815260206004820152601d60248201527f4c7a4170703a206e6f20747275737465642070617468207265636f72640000006044820152606401610bdc565b611b42600060148351612a5e91906156c6565b839190614022565b612a7133838361412f565b5050565b612a7d6136ae565b818130604051602001612a9293929190615859565b60408051601f1981840301815291815261ffff8516600090815260016020522090612abd90826158d5565b507f8c0400cfe2d1199b1a725c78960bcc2a344d869b80590d0f2bd005db15a572ce838383604051612af19392919061567a565b60405180910390a1505050565b610d90878787878787876139a8565b612b17338361379b565b612b335760405162461bcd60e51b8152600401610bdc906155ba565b612b3f848484846141f9565b50505050565b612b4d6136ae565b600480546001600160a01b0319166001600160a01b0383169081179091556040519081527f5db758e995a17ec1ad84bdef7e8c3293a0bd6179bcce400dff5d4c3d87db726b906020016110a8565b612ba3613b6f565b60008181526013602052604081206003015490652d79883d200090612bc8828461558e565b9050803414612c41576040805162461bcd60e51b81526020600482015260248101919091527f506c65617365207375626d6974207468652061736b696e67207072696365206960448201527f6e206f7264657220746f20636f6d706c657465207468652070757263686173656064820152608401610bdc565b6000848152601360205260408082206001015490516001600160a01b039091169085908381818185875af1925050503d8060008114612c9c576040519150601f19603f3d011682016040523d82523d6000602084013e612ca1565b606091505b5050905080612ceb5760405162461bcd60e51b815260206004820152601660248201527514d95b1b195c881d1c985b9cd9995c8819985a5b195960521b6044820152606401610bdc565b604051600090309085908381818185875af1925050503d8060008114612d2d576040519150601f19603f3d011682016040523d82523d6000602084013e612d32565b606091505b5050905080612d7d5760405162461bcd60e51b8152602060048201526017602482015276131a5cdd1a5b99c81d1c985b9cd9995c8819985a5b1959604a1b6044820152606401610bdc565b60008681526013602090815260409182902060010154825188815291820187905233926001600160a01b039091169189917fbfde04792e4efff2a73f497126f76e36161846a6a38b53a06e95a2cabcf71fd4910160405180910390a46000868152601360205260409020600281018054336001600160a01b0319918216811790925560048301805460ff191660019081179091559092018054909216909155612e28903090886137f9565b5050505050611a1c6001600655565b6060612e4282613708565b60008281526011602052604081208054612e5b90615518565b80601f0160208091040260200160405190810160405280929190818152602001828054612e8790615518565b8015612ed45780601f10612ea957610100808354040283529160200191612ed4565b820191906000526020600020905b815481529060010190602001808311612eb757829003601f168201915b505050505090506000612ef260408051602081019091526000815290565b90508051600003612f04575092915050565b815115612f36578082604051602001612f1e92919061598e565b60405160208183030381529060405292505050919050565b612f3f8461422c565b949350505050565b612f4f6136ae565b6040516332fb62e760e21b81526001600160a01b037f0000000000000000000000000000000000000000000000000000000000000000169063cbed8b9c90612fa390889088908890889088906004016159bd565b600060405180830381600087803b158015612fbd57600080fd5b505af1158015612fd1573d6000803e3d6000fd5b505050505050505050565b612fe46136ae565b600081116130405760405162461bcd60e51b815260206004820152602360248201527f647374436861696e4964546f5472616e73666572476173206d7573742062652060448201526203e20360ec1b6064820152608401610bdc565b61ffff8216600081815260096020908152604091829020849055815192835282018390527fc46df2983228ac2d9754e94a0d565e6671665dc8ad38602bc8e544f0685a29fb910161294b565b61ffff861660009081526005602052604080822090516130af9088908890615552565b90815260408051602092819003830190206001600160401b0387166000908152925290205490508061312f5760405162461bcd60e51b815260206004820152602360248201527f4e6f6e626c6f636b696e674c7a4170703a206e6f2073746f726564206d65737360448201526261676560e81b6064820152608401610bdc565b808383604051613140929190615552565b60405180910390201461319f5760405162461bcd60e51b815260206004820152602160248201527f4e6f6e626c6f636b696e674c7a4170703a20696e76616c6964207061796c6f616044820152601960fa1b6064820152608401610bdc565b61ffff871660009081526005602052604080822090516131c29089908990615552565b90815260408051602092819003830181206001600160401b038916600090815290845282902093909355601f8801829004820283018201905286825261325a918991899089908190840183828082843760009201919091525050604080516020601f8a018190048102820181019092528881528a935091508890889081908401838280828437600092019190915250613d6d92505050565b7fc264d91f3adc5588250e1551f547752ca0cfa8f6b530d243b9f9f4cab10ea8e587878787856040516132919594939291906159f6565b60405180910390a150505050505050565b6132aa6136ae565b61ffff83811660008181526002602090815260408083209487168084529482529182902085905581519283528201929092529081018290527f9d5c7c0b934da8fefa9c7760c98383778a12dfbfc0c3b3106518f43fb9508ac090606001612af1565b6000828152601360205260409020600201546001600160a01b031633146133455760405162461bcd60e51b8152600401610bdc90615607565b600082815260136020526040902060048101805460ff1916905560038101829055600181018054336001600160a01b031991821681179092556002909201805430931683179055612a7191846137f9565b6001600160a01b03918216600090815260106020908152604080832093909416825291909152205460ff1690565b6133cc6136ae565b61ffff831660009081526001602052604090206133ea828483615a31565b507ffa41487ad5d6728f0b19276fa1eddc16558578f5109fc39d2dc33c3230470dab838383604051612af19392919061567a565b60008060008686604051602001613436929190615b25565b60408051601f198184030181529082905263040a7bb160e41b825291506001600160a01b037f000000000000000000000000000000000000000000000000000000000000000016906340a7bb109061349a908b90309086908b908b90600401615b4a565b6040805180830381865afa1580156134b6573d6000803e3d6000fd5b505050506040513d601f19601f820116820180604052508101906134da9190615b9e565b92509250509550959350505050565b6134f16136ae565b6001600160a01b0381166135565760405162461bcd60e51b815260206004820152602660248201527f4f776e61626c653a206e6577206f776e657220697320746865207a65726f206160448201526564647265737360d01b6064820152608401610bdc565b611a1c81613db4565b604051633d7b2f6f60e21b815261ffff808616600483015284166024820152306044820152606481018290526060907f00000000000000000000000000000000000000000000000000000000000000006001600160a01b03169063f5ecbdbc90608401600060405180830381865afa1580156135df573d6000803e3d6000fd5b505050506040513d6000823e601f3d908101601f191682016040526136079190810190615bc2565b95945050505050565b6000806136735a60966366ad5c8a60e01b898989896040516024016136389493929190615bf6565b60408051601f198184030181529190526020810180516001600160e01b03166001600160e01b0319909316929092179091523092919061429f565b915091508161232c5761232c8686868685614329565b60006001600160e01b03198216632483248360e11b1480610db65750610db6826143c6565b6000546001600160a01b031633146123cc5760405162461bcd60e51b815260206004820181905260248201527f4f776e61626c653a2063616c6c6572206973206e6f7420746865206f776e65726044820152606401610bdc565b61371181613e04565b611a1c5760405162461bcd60e51b8152600401610bdc906156d9565b6000818152600f6020526040902080546001600160a01b0319166001600160a01b038416908117909155819061376282612223565b6001600160a01b03167f8c5be1e5ebec7d5bd14f71427d1e84f3dd0314c0f7b2291e5b200ac8c7c3b92560405160405180910390a45050565b6000806137a783612223565b9050806001600160a01b0316846001600160a01b031614806137ce57506137ce8185613396565b80612f3f5750836001600160a01b03166137e784610ed7565b6001600160a01b031614949350505050565b826001600160a01b031661380c82612223565b6001600160a01b0316146138325760405162461bcd60e51b8152600401610bdc90615c34565b6001600160a01b0382166138945760405162461bcd60e51b8152602060048201526024808201527f4552433732313a207472616e7366657220746f20746865207a65726f206164646044820152637265737360e01b6064820152608401610bdc565b826001600160a01b03166138a782612223565b6001600160a01b0316146138cd5760405162461bcd60e51b8152600401610bdc90615c34565b6000818152600f6020908152604080832080546001600160a01b03199081169091556001600160a01b03878116808652600e8552838620805460001901905590871680865283862080546001019055868652600d90945282852080549092168417909155905184937fddf252ad1be2c89b69c2b068fc378daa952ba7f163c4a11628f55a4df523b3ef91a4505050565b6040805160018082528183019092526060916000919060208083019080368337019050509050828160008151811061399757613997615562565b602090810291909101015292915050565b60008451116139ef5760405162461bcd60e51b8152602060048201526013602482015272746f6b656e4964735b5d20697320656d70747960681b6044820152606401610bdc565b835160011480613a13575061ffff8616600090815260086020526040902054845111155b613a6a5760405162461bcd60e51b815260206004820152602260248201527f62617463682073697a65206578636565647320647374206261746368206c696d6044820152611a5d60f21b6064820152608401610bdc565b60005b8451811015613aa057613a8e888888888581518110610ed057610ed0615562565b80613a98816155a1565b915050613a6d565b5060008585604051602001613ab6929190615b25565b6040516020818303038152906040529050613afb876001848851600960008d61ffff1661ffff16815260200190815260200160002054613af69190615c79565b614406565b613b09878286868634613bc8565b85604051613b179190615c90565b6040518091039020886001600160a01b03168861ffff167fe1b87c47fdeb4f9cbadbca9df3af7aba453bb6e501075d0440d88125b711522a88604051613b5d9190615cac565b60405180910390a45050505050505050565b600260065403613bc15760405162461bcd60e51b815260206004820152601f60248201527f5265656e7472616e637947756172643a207265656e7472616e742063616c6c006044820152606401610bdc565b6002600655565b61ffff861660009081526001602052604081208054613be690615518565b80601f0160208091040260200160405190810160405280929190818152602001828054613c1290615518565b8015613c5f5780601f10613c3457610100808354040283529160200191613c5f565b820191906000526020600020905b815481529060010190602001808311613c4257829003601f168201915b505050505090508051600003613cd05760405162461bcd60e51b815260206004820152603060248201527f4c7a4170703a2064657374696e6174696f6e20636861696e206973206e6f742060448201526f61207472757374656420736f7572636560801b6064820152608401610bdc565b613cdb8787516144db565b60405162c5803160e81b81526001600160a01b037f0000000000000000000000000000000000000000000000000000000000000000169063c5803100908490613d32908b9086908c908c908c908c90600401615cbf565b6000604051808303818588803b158015613d4b57600080fd5b505af1158015613d5f573d6000803e3d6000fd5b505050505050505050505050565b80604051613d7b9190615c90565b604051908190038120907f58821679575dbd551d7fc0616547b37f4beb5d7ba490d25519fbf0994f393a6290600090a2612b3f8161454c565b600080546001600160a01b038381166001600160a01b0319831681178455604051919092169283917f8be0079c531659141344cd1fd0a4f28419497f9722a3daafe3b4186f6b6457e09190a35050565b6000908152600d60205260409020546001600160a01b0316151590565b6001600160a01b038216613e775760405162461bcd60e51b815260206004820181905260248201527f4552433732313a206d696e7420746f20746865207a65726f20616464726573736044820152606401610bdc565b613e8081613e04565b15613e9d5760405162461bcd60e51b8152600401610bdc90615d26565b613ea681613e04565b15613ec35760405162461bcd60e51b8152600401610bdc90615d26565b6001600160a01b0382166000818152600e6020908152604080832080546001019055848352600d90915280822080546001600160a01b0319168417905551839291907fddf252ad1be2c89b69c2b068fc378daa952ba7f163c4a11628f55a4df523b3ef908290a45050565b613f3782613e04565b613f9a5760405162461bcd60e51b815260206004820152602e60248201527f45524337323155524953746f726167653a2055524920736574206f66206e6f6e60448201526d32bc34b9ba32b73a103a37b5b2b760911b6064820152608401610bdc565b6000828152601160205260409020613fb282826158d5565b506040518281527ff8e1a15aba9398e019f0b49df1a4fde98ee17ae345cb5f6b5e2c27f5033e8ce79060200161294b565b6000825b8251811015613607576007545a10613607576140108686858481518110612b3f57612b3f615562565b8061401a816155a1565b915050613fe7565b60608161403081601f61558e565b101561406f5760405162461bcd60e51b815260206004820152600e60248201526d736c6963655f6f766572666c6f7760901b6044820152606401610bdc565b614079828461558e565b845110156140bd5760405162461bcd60e51b8152602060048201526011602482015270736c6963655f6f75744f66426f756e647360781b6044820152606401610bdc565b6060821580156140dc5760405191506000825260208201604052614126565b6040519150601f8416801560200281840101858101878315602002848b0101015b818310156141155780518352602092830192016140fd565b5050858452601f01601f1916604052505b50949350505050565b816001600160a01b0316836001600160a01b03160361418c5760405162461bcd60e51b815260206004820152601960248201527822a9219b99189d1030b8383937bb32903a379031b0b63632b960391b6044820152606401610bdc565b6001600160a01b03838116600081815260106020908152604080832094871680845294825291829020805460ff191686151590811790915591519182527f17307eab39ab6107e8899845ad3d59bd9653f200f220920489ca2b5937696c31910160405180910390a3505050565b6142048484846137f9565b614210848484846146e3565b612b3f5760405162461bcd60e51b8152600401610bdc90615d5d565b606061423782613708565b600061424e60408051602081019091526000815290565b9050600081511161426e5760405180602001604052806000815250611b42565b80614278846147e1565b60405160200161428992919061598e565b6040516020818303038152906040529392505050565b6000606060008060008661ffff166001600160401b038111156142c4576142c4614d75565b6040519080825280601f01601f1916602001820160405280156142ee576020820181803683370190505b50905060008087516020890160008d8df191503d925086831115614310578692505b828152826000602083013e909890975095505050505050565b8180519060200120600560008761ffff1661ffff1681526020019081526020016000208560405161435a9190615c90565b9081526040805191829003602090810183206001600160401b0388166000908152915220919091557fe183f33de2837795525b4792ca4cd60535bd77c53b7e7030060bfcf5734d6b0c906143b79087908790879087908790615daf565b60405180910390a15050505050565b60006001600160e01b031982166380ac58cd60e01b14806143f757506001600160e01b03198216635b5e139f60e01b145b80610db65750610db682614873565b6000614411836148a8565b61ffff808716600090815260026020908152604080832093891683529290522054909150806144825760405162461bcd60e51b815260206004820152601a60248201527f4c7a4170703a206d696e4761734c696d6974206e6f74207365740000000000006044820152606401610bdc565b61448c838261558e565b82101561232c5760405162461bcd60e51b815260206004820152601b60248201527f4c7a4170703a20676173206c696d697420697320746f6f206c6f7700000000006044820152606401610bdc565b61ffff8216600090815260036020526040812054908190036144fc57506127105b8082111561100e5760405162461bcd60e51b815260206004820181905260248201527f4c7a4170703a207061796c6f61642073697a6520697320746f6f206c617267656044820152606401610bdc565b6000806000838060200190518101906145659190615e01565b60008181526014602052604090205492955090935091506001600160a01b038084169116036145c857600081815260136020526040902060020180546001600160a01b0319166001600160a01b0384161790556145c330838361193b565b61469b565b6145d28282614904565b6145dc8184613f2e565b6040805160c081018252828152600060208083018281526001600160a01b0387811685870190815260608601858152608087018681524260a089019081528a885260138752898820985189559451600189810180549287166001600160a01b0319938416179055935160028a01805491909616911617909355516003870155905160048601805491151560ff19909216919091179055905160059094019390935560125482526015815292812080549283018155815291909120018190555b816001600160a01b0316817f621af149fb672fcb5831d7e45f8dcc48a5173fdb91837cf0bb38bc514e603455856040516146d59190614bff565b60405180910390a350505050565b60006001600160a01b0384163b156147d957604051630a85bd0160e11b81526001600160a01b0385169063150b7a0290614727903390899088908890600401615e6f565b6020604051808303816000875af1925050508015614762575060408051601f3d908101601f1916820190925261475f91810190615eac565b60015b6147bf573d808015614790576040519150601f19603f3d011682016040523d82523d6000602084013e614795565b606091505b5080516000036147b75760405162461bcd60e51b8152600401610bdc90615d5d565b805181602001fd5b6001600160e01b031916630a85bd0160e11b149050612f3f565b506001612f3f565b606060006147ee8361491e565b60010190506000816001600160401b0381111561480d5761480d614d75565b6040519080825280601f01601f191660200182016040528015614837576020820181803683370190505b5090508181016020015b600019016f181899199a1a9b1b9c1cb0b131b232b360811b600a86061a8153600a850494508461484157509392505050565b60006001600160e01b031982166322bac5d960e01b1480610db657506301ffc9a760e01b6001600160e01b0319831614610db6565b60006022825110156148fc5760405162461bcd60e51b815260206004820152601c60248201527f4c7a4170703a20696e76616c69642061646170746572506172616d73000000006044820152606401610bdc565b506022015190565b612a718282604051806020016040528060008152506149f6565b60008072184f03e93ff9f4daa797ed6e38ed64bf6a1f0160401b831061495d5772184f03e93ff9f4daa797ed6e38ed64bf6a1f0160401b830492506040015b6d04ee2d6d415b85acef81000000008310614989576d04ee2d6d415b85acef8100000000830492506020015b662386f26fc1000083106149a757662386f26fc10000830492506010015b6305f5e10083106149bf576305f5e100830492506008015b61271083106149d357612710830492506004015b606483106149e5576064830492506002015b600a8310610db65760010192915050565b614a008383613e21565b614a0d60008484846146e3565b61100e5760405162461bcd60e51b8152600401610bdc90615d5d565b6040518060c001604052806000815260200160006001600160a01b0316815260200160006001600160a01b0316815260200160008152602001600015158152602001600081525090565b803561ffff81168114614a8557600080fd5b919050565b60008083601f840112614a9c57600080fd5b5081356001600160401b03811115614ab357600080fd5b602083019150836020828501011115614acb57600080fd5b9250929050565b80356001600160401b0381168114614a8557600080fd5b60008060008060008060808789031215614b0257600080fd5b614b0b87614a73565b955060208701356001600160401b0380821115614b2757600080fd5b614b338a838b01614a8a565b9097509550859150614b4760408a01614ad2565b94506060890135915080821115614b5d57600080fd5b50614b6a89828a01614a8a565b979a9699509497509295939492505050565b6001600160e01b031981168114611a1c57600080fd5b600060208284031215614ba457600080fd5b8135611b4281614b7c565b60005b83811015614bca578181015183820152602001614bb2565b50506000910152565b60008151808452614beb816020860160208601614baf565b601f01601f19169290920160200192915050565b602081526000611b426020830184614bd3565b600060208284031215614c2457600080fd5b611b4282614a73565b600060208284031215614c3f57600080fd5b5035919050565b6001600160a01b0381168114611a1c57600080fd5b8035614a8581614c46565b60008060408385031215614c7957600080fd5b8235614c8481614c46565b946020939093013593505050565b60008060408385031215614ca557600080fd5b614c8483614a73565b602080825282518282018190526000919060409081850190868401855b82811015614d2757815180518552868101516001600160a01b03908116888701528682015116868601526060808201519086015260808082015115159086015260a0908101519085015260c09093019290850190600101614ccb565b5091979650505050505050565b600080600060608486031215614d4957600080fd5b8335614d5481614c46565b92506020840135614d6481614c46565b929592945050506040919091013590565b634e487b7160e01b600052604160045260246000fd5b604051601f8201601f191681016001600160401b0381118282101715614db357614db3614d75565b604052919050565b60006001600160401b03821115614dd457614dd4614d75565b50601f01601f191660200190565b6000614df5614df084614dbb565b614d8b565b9050828152838383011115614e0957600080fd5b828260208301376000602084830101529392505050565b600082601f830112614e3157600080fd5b611b4283833560208501614de2565b80358015158114614a8557600080fd5b600080600080600060a08688031215614e6857600080fd5b614e7186614a73565b945060208601356001600160401b0380821115614e8d57600080fd5b614e9989838a01614e20565b955060408801359450614eae60608901614e40565b93506080880135915080821115614ec457600080fd5b50614ed188828901614e20565b9150509295509295909350565b600080600060408486031215614ef357600080fd5b614efc84614a73565b925060208401356001600160401b03811115614f1757600080fd5b614f2386828701614a8a565b9497909650939450505050565b600080600080600080600060e0888a031215614f4b57600080fd5b8735614f5681614c46565b9650614f6460208901614a73565b955060408801356001600160401b0380821115614f8057600080fd5b614f8c8b838c01614e20565b965060608a0135955060808a01359150614fa582614c46565b90935060a089013590614fb782614c46565b90925060c08901359080821115614fcd57600080fd5b50614fda8a828b01614e20565b91505092959891949750929550565b600080600060608486031215614ffe57600080fd5b61500784614a73565b92506020840135915060408401356001600160401b0381111561502957600080fd5b61503586828701614e20565b9150509250925092565b60008060006060848603121561505457600080fd5b61505d84614a73565b925060208401356001600160401b0381111561507857600080fd5b61508486828701614e20565b92505061509360408501614ad2565b90509250925092565b6000602082840312156150ae57600080fd5b8135611b4281614c46565b600080604083850312156150cc57600080fd5b82356001600160401b038111156150e257600080fd5b8301601f810185136150f357600080fd5b61510285823560208401614de2565b95602094909401359450505050565b6000806040838503121561512457600080fd5b61512d83614a73565b915061513b60208401614a73565b90509250929050565b60006020828403121561515657600080fd5b81356001600160401b0381111561516c57600080fd5b612f3f84828501614e20565b6000806040838503121561518b57600080fd5b823561519681614c46565b915061513b60208401614e40565b60006001600160401b038211156151bd576151bd614d75565b5060051b60200190565b600082601f8301126151d857600080fd5b813560206151e8614df0836151a4565b82815260059290921b8401810191818101908684111561520757600080fd5b8286015b84811015615222578035835291830191830161520b565b509695505050505050565b600080600080600080600060e0888a03121561524857600080fd5b873561525381614c46565b965061526160208901614a73565b955060408801356001600160401b038082111561527d57600080fd5b6152898b838c01614e20565b965060608a013591508082111561529f57600080fd5b6152ab8b838c016151c7565b955060808a013591506152bd82614c46565b8194506152cc60a08b01614c5b565b935060c08a0135915080821115614fcd57600080fd5b600080600080608085870312156152f857600080fd5b843561530381614c46565b9350602085013561531381614c46565b92506040850135915060608501356001600160401b0381111561533557600080fd5b61534187828801614e20565b91505092959194509250565b60008060008060006080868803121561536557600080fd5b61536e86614a73565b945061537c60208701614a73565b93506040860135925060608601356001600160401b0381111561539e57600080fd5b6153aa88828901614a8a565b969995985093965092949392505050565b6000806000606084860312156153d057600080fd5b6153d984614a73565b92506153e760208501614a73565b9150604084013590509250925092565b6000806040838503121561540a57600080fd5b50508035926020909101359150565b6000806040838503121561542c57600080fd5b823561543781614c46565b9150602083013561544781614c46565b809150509250929050565b600080600080600060a0868803121561546a57600080fd5b61547386614a73565b945060208601356001600160401b038082111561548f57600080fd5b61549b89838a01614e20565b955060408801359150808211156154b157600080fd5b6154bd89838a016151c7565b9450614eae60608901614e40565b600080600080608085870312156154e157600080fd5b6154ea85614a73565b93506154f860208601614a73565b9250604085013561550881614c46565b9396929550929360600135925050565b600181811c9082168061552c57607f821691505b60208210810361554c57634e487b7160e01b600052602260045260246000fd5b50919050565b8183823760009101908152919050565b634e487b7160e01b600052603260045260246000fd5b634e487b7160e01b600052601160045260246000fd5b80820180821115610db657610db6615578565b6000600182016155b3576155b3615578565b5060010190565b6020808252602d908201527f4552433732313a2063616c6c6572206973206e6f7420746f6b656e206f776e6560408201526c1c881bdc88185c1c1c9bdd9959609a1b606082015260800190565b6020808252602a908201527f4f6e6c79206974656d206f776e65722063616e20706572666f726d20746869736040820152691037b832b930ba34b7b760b11b606082015260800190565b81835281816020850137506000828201602090810191909152601f909101601f19169091010190565b61ffff84168152604060208201526000613607604083018486615651565b6060815260006156ab6060830186614bd3565b6001600160a01b039490941660208301525060400152919050565b81810381811115610db657610db6615578565b602080825260189082015277115490cdcc8c4e881a5b9d985b1a59081d1bdad95b88125160421b604082015260600190565b60008261572857634e487b7160e01b600052601260045260246000fd5b500690565b6040815260006157406040830185614bd3565b90508260208301529392505050565b600061575d614df084614dbb565b905082815283838301111561577157600080fd5b611b42836020830184614baf565b600082601f83011261579057600080fd5b611b428383516020850161574f565b600080604083850312156157b257600080fd5b82516001600160401b03808211156157c957600080fd5b6157d58683870161577f565b93506020915081850151818111156157ec57600080fd5b85019050601f810186136157ff57600080fd5b805161580d614df0826151a4565b81815260059190911b8201830190838101908883111561582c57600080fd5b928401925b8284101561584a57835182529284019290840190615831565b80955050505050509250929050565b8284823760609190911b6001600160601b0319169101908152601401919050565b601f82111561100e57600081815260208120601f850160051c810160208610156158a15750805b601f850160051c820191505b8181101561232c578281556001016158ad565b600019600383901b1c191660019190911b1790565b81516001600160401b038111156158ee576158ee614d75565b615902816158fc8454615518565b8461587a565b602080601f831160018114615931576000841561591f5750858301515b61592985826158c0565b86555061232c565b600085815260208120601f198616915b8281101561596057888601518255948401946001909101908401615941565b508582101561597e5787850151600019600388901b60f8161c191681555b5050505050600190811b01905550565b600083516159a0818460208801614baf565b8351908301906159b4818360208801614baf565b01949350505050565b600061ffff8088168352808716602084015250846040830152608060608301526159eb608083018486615651565b979650505050505050565b61ffff86168152608060208201526000615a14608083018688615651565b6001600160401b0394909416604083015250606001529392505050565b6001600160401b03831115615a4857615a48614d75565b615a5c83615a568354615518565b8361587a565b6000601f841160018114615a8a5760008515615a785750838201355b615a8286826158c0565b845550610ed0565b600083815260209020601f19861690835b82811015615abb5786850135825560209485019460019092019101615a9b565b5086821015615ad85760001960f88860031b161c19848701351681555b505060018560011b0183555050505050565b600081518084526020808501945080840160005b83811015615b1a57815187529582019590820190600101615afe565b509495945050505050565b604081526000615b386040830185614bd3565b82810360208401526136078185615aea565b61ffff861681526001600160a01b038516602082015260a060408201819052600090615b7890830186614bd3565b84151560608401528281036080840152615b928185614bd3565b98975050505050505050565b60008060408385031215615bb157600080fd5b505080516020909101519092909150565b600060208284031215615bd457600080fd5b81516001600160401b03811115615bea57600080fd5b612f3f8482850161577f565b61ffff85168152608060208201526000615c136080830186614bd3565b6001600160401b038516604084015282810360608401526159eb8185614bd3565b60208082526025908201527f4552433732313a207472616e736665722066726f6d20696e636f72726563742060408201526437bbb732b960d91b606082015260800190565b8082028115828204841417610db657610db6615578565b60008251615ca2818460208701614baf565b9190910192915050565b602081526000611b426020830184615aea565b61ffff8716815260c060208201526000615cdc60c0830188614bd3565b8281036040840152615cee8188614bd3565b6001600160a01b0387811660608601528616608085015283810360a08501529050615d198185614bd3565b9998505050505050505050565b6020808252601c908201527f4552433732313a20746f6b656e20616c7265616479206d696e74656400000000604082015260600190565b60208082526032908201527f4552433732313a207472616e7366657220746f206e6f6e20455243373231526560408201527131b2b4bb32b91034b6b83632b6b2b73a32b960711b606082015260800190565b61ffff8616815260a060208201526000615dcc60a0830187614bd3565b6001600160401b03861660408401528281036060840152615ded8186614bd3565b90508281036080840152615b928185614bd3565b600080600060608486031215615e1657600080fd5b83516001600160401b03811115615e2c57600080fd5b8401601f81018613615e3d57600080fd5b615e4c8682516020840161574f565b9350506020840151615e5d81614c46565b80925050604084015190509250925092565b6001600160a01b0385811682528416602082015260408101839052608060608201819052600090615ea290830184614bd3565b9695505050505050565b600060208284031215615ebe57600080fd5b8151611b4281614b7c56fea2646970667358221220bb41d0aa21b1ef1e535ad9a7771e51fcce9ac7d911aceeab876f8acca4dbb66d64736f6c63430008130033",
  "linkReferences": {},
  "deployedLinkReferences": {}
}